:20FE0000B240A05A2001C24300000D123D4033821D83FE233D41C2432100C2432600E243CA
:20FE20002200C2432900C2432E00F24018002A00F24028001900F24006001B00F240F800DB
:20FE40001A00C2431D00C2431F00F240C1001E003F4040005FF22000C24F0802F2B0400004
:20FE600008020624B012A0FE4C9302249212FEFDF2D040001D000D123D4033821D83FE2319
:20FE80003D41F2D040001900C243580032C39212000CC29308020324C2930802FD23304151
:20FEA00031828143040081430600B14000E0000081430200819302001520B19000FE0000DC
:20FEC000112C2F41A15F0400916F02000600A152000081630200819302000420B19000FE17
:20FEE0000000EF2B4C438193060004208193040001205C433152304131400004B2401EFFCB
:20FF00000002B2401EFF0202B01216FF0C43B01200FEB0121AFF1C4330410343FF3F304146
:20FF9C001042E0FD1042E2FD1042E4FD1042E6FD1042E8FD1042EAFD1042ECFD1042EEFD95
:20FFBC001042F0FD1042F2FD1042F4FD1042F6FD1042F8FD1042FAFD1042FCFD1042DCFF15
:02FFDC00F8FE2D
:02FFDE00000021
:20FFE0009CFFA0FFA4FFA8FFACFFB0FFB4FFB8FFBCFFC0FFC4FFC8FFCCFFD0FFD4FFD8FF71
:00000001FF
